:100000000C9456000C9473000C9473000C947300C1
:100010000C9473000C9473000C9473000C94730094
:100020000C9473000C9473000C9473000C94730084
:100030000C9473000C9473000C9473000C94730074
:100040000C9473000C9473000C9473000C94730064
:100050000C9473000C9473000C9473000C94730054
:100060000C9473000C9473000C9473000C94730044
:10007000036EDB363D9A9999993DABAAAA2A3E00B8
:100080000000803F072C7AA5BA6CC590DA3B9365D7
:10009000FC8BBC53F810FD3C5692834DBD879D3AB6
:1000A000B63DCBC9BF5BBE73DA0FC93F11241FBE7B
:1000B000CFEFD4E0DEBFCDBF11E0A0E0B1E0EAE7D2
:1000C000F3E102C005900D92AC3EB107D9F721E0F3
:1000D000ACEEB1E001C01D92A63FB207E1F70E946D
:1000E000F8010C94BB090C940000CF93DF9300D06F
:1000F00000D0CDB7DEB7E0E0F4E120EE208320E1D0
:100100002A95F1F700C02081298320812A8320814C
:100110002B8320812C83FE01E80FF91F81810F9032
:100120000F900F900F90DF91CF910895EF92FF9273
:100130000F931F93CF93DF9300D000D0CDB7DEB7DE
:10014000CE0101967C0100E010E0C8010E9475001C
:10015000F70181937F010F5F1F4F04301105A9F74D
:100160008C811F928F938B811F928F938A811F9214
:100170008F9389811F928F9386E091E09F938F9355
:100180000E9469050FB6F894DEBF0FBECDBF0F9079
:100190000F900F900F90DF91CF911F910F91FF90D3
:1001A000EF9008958C9AF894EBE8F0E080818064F9
:1001B0008083EAE8F0E080818160808380818860CC
:1001C000808381E090E0909387008093860078940C
:1001D00008958F929F92AF92BF92CF92DF92EF924B
:1001E000FF920F931F93CF93DF93CDB7DEB728977E
:1001F0000FB6F894DEBF0FBECDBF8C0182E090E059
:100200000E947500E82E83E090E00E947500F82EB1
:100210006E2D70E065587109072E000C880B990B44
:100220000E94020320E030E045E853E40E945802B7
:100230000E943D024B015C016F2D70E06558710911
:10024000072E000C880B990B0E94020320E030E07F
:1002500045E853E40E9458020E943D026B017C0174
:1002600020E030E044E353E4C501B4010E94E90317
:1002700023EC35EF48E450E40E94580269837A8306
:100280008B839C8320E030E044E353E4C701B60154
:100290000E94E90323EC35EF48E450E40E94580241
:1002A0006D837E838F839887000F111F000F111FAE
:1002B000FE01E00FF11F61817281838194810E94B0
:1002C000CA02CB0128960FB6F894DEBF0FBECDBF91
:1002D000DF91CF911F910F91FF90EF90DF90CF9022
:1002E000BF90AF909F908F900895CF93DF9380E061
:1002F00090E00E94E900EC0181E090E00E94E900BA
:10030000AE01DD2324F4442755274C1B5D0B9C01D3
:10031000992324F422273327281B390B421753072C
:1003200044F0C031D1056CF4C13FDF4F64F084E08C
:100330000FC0803191054CF4813F9F4F44F084E021
:1003400007C081E005C080E003C082E001C083E017
:10035000DF91CF9108950E947501843029F481E2E4
:1003600091E00E947F0508950E947501833029F471
:100370008AE291E00E947F0508950E947501823013
:1003800029F480E391E00E947F0508950E947501A1
:10039000813029F484E391E00E947F0508950E9452
:1003A0007501811104C08BE391E00E947F050895DF
:1003B000B898B99886B381701F928F938BE891E0BB
:1003C0009F938F930E94690586B3869581701F92D3
:1003D0008F9383EA91E09F938F930E9469058DB775
:1003E0009EB708960FB6F8949EBF0FBE8DBF0895B6
:1003F000CF93DF938FE190E00E942E0269E372E0D9
:1004000085E392E00E941E058CEB91E00E947F053F
:10041000A39A85B7806885BF80B7806280BF80B7A8
:100420008F7E80BF80B7877F80BF0E94D200CEE1E1
:10043000D0E08DEC91E00E947F050E94AB010E940C
:1004400096000E94D8012197A1F78AED91E00E94C1
:100450007F0580E090E0DF91CF91089590BD89B94C
:1004600088E18AB98EE880BD08955D9BFECF8CB986
:1004700008955F9BFECF8CB108959F939F77EEE325
:1004800089379E0728F4E0E7F0E00E948D030CC056
:100490000E943D039058A2EA2AED3FE049EC5FE359
:1004A0000E94B4040E94AF030F9007FC9058089577
:1004B0000E946C020C94AF030E94A80358F00E94A3
:1004C000A10340F029F45F3F29F00C945D03511122
:1004D0000C94E3030C9463030E94C00368F3992314
:1004E000B1F3552391F3951B550BBB27AA27621730
:1004F0007307840738F09F5F5F4F220F331F441F3D
:10050000AA1FA9F335D00E2E3AF0E0E832D0915070
:100510005040E695001CCAF72BD0FE2F29D0660F5D
:10052000771F881FBB1F261737074807AB07B0E8A0
:1005300009F0BB0B802DBF01FF2793585F4F3AF0A6
:100540009E3F510578F00C945D030C94E3035F3FEC
:10055000E4F3983ED4F3869577956795B795F7952C
:100560009F5FC9F7880F911D9695879597F9089514
:10057000E1E0660F771F881FBB1F621773078407B0
:10058000BA0720F0621B730B840BBA0BEE1F88F7BF
:10059000E09508950E94D1026894B1110C94E30390
:1005A00008950E94C80388F09F5798F0B92F9927A3
:1005B000B751B0F0E1F0660F771F881F991F1AF04E
:1005C000BA95C9F714C0B13091F00E94E203B1E0CE
:1005D00008950C94E203672F782F8827B85F39F0CD
:1005E000B93FCCF3869577956795B395D9F73EF4E7
:1005F00090958095709561957F4F8F4F9F4F08958F
:10060000E89409C097FB3EF49095809570956195AC
:100610007F4F8F4F9F4F9923A9F0F92F96E9BB2762
:100620009395F695879577956795B795F111F8CFDE
:10063000FAF4BB0F11F460FF1BC06F5F7F4F8F4F49
:100640009F4F16C0882311F096E911C0772321F03F
:100650009EE8872F762F05C0662371F096E8862FD7
:1006600070E060E02AF09A95660F771F881FDAF72E
:10067000880F9695879597F90895DF93CF931F93E9
:100680000F938B01EC01E4E8F0E00E9466030E9406
:10069000AF039801AE018B01EC0160E070E080E8EF
:1006A0009FE30E949C040E945C049801AE010F919C
:1006B0001F91CF91DF910C94FC0397F99F6780E81D
:1006C00070E060E008959FEF80EC0895DF93CF9392
:1006D0001F930F93FF92EF92DF927B018C0168943E
:1006E00006C0DA2EEF010E94FC03FE01E894A591FA
:1006F0002591359145915591A6F3EF010E94B404DF
:10070000FE019701A801DA9469F7DF90EF90FF905E
:100710000F911F91CF91DF9108959F938F937F93B6
:100720006F93FF93EF939B01AC010E94E903EF915C
:10073000FF910E9466032F913F914F915F910C941E
:10074000E90300240A9416161706180609060895E8
:1007500000240A9412161306140605060895092E9D
:100760000394000C11F4882352F0BB0F40F4BF2B0C
:1007700011F460FF04C06F5F7F4F8F4F9F4F08954C
:1007800057FD9058440F551F59F05F3F71F0479542
:10079000880F97FB991F61F09F3F79F08795089527
:1007A000121613061406551FF2CF4695F1DF08C046
:1007B000161617061806991FF1CF86957105610563
:1007C00008940895E894BB2766277727CB0197F90B
:1007D00008950E94FC030C94AF030E94A10338F01B
:1007E0000E94A80320F0952311F00C945D030C9453
:1007F000630311240C94E3030E94C00370F3959FDC
:10080000C1F3950F50E0551F629FF001729FBB2707
:10081000F00DB11D639FAA27F00DB11DAA1F649FA3
:100820006627B00DA11D661F829F2227B00DA11D56
:10083000621F739FB00DA11D621F839FA00D611DDC
:10084000221F749F3327A00D611D231F849F600DFD
:10085000211D822F762F6A2F11249F5750409AF026
:10086000F1F088234AF0EE0FFF1FBB1F661F771FB2
:10087000881F91505040A9F79E3F510580F00C947D
:100880005D030C94E3035F3FE4F3983ED4F3869555
:1008900077956795B795F795E7959F5FC1F7FE2B1D
:1008A000880F911D9695879597F9089519F416F478
:1008B0000C9463030C9409050E94C803B8F39923B0
:1008C000C9F3B6F39F57550B87FF0E941705002405
:1008D000A0E640EA900180585695979528F4805CF0
:1008E000660F771F881F20F026173707480730F458
:1008F000621B730B840B202931294A2BA695179470
:100900000794202531254A2758F7660F771F881F3F
:1009100020F026173707480730F4620B730B840B5F
:10092000200D311D411DA09581F7B901842F9158EB
:10093000880F9695879508955058BB27AA270E943F
:10094000B4040C94AF030E94A10338F00E94A803E2
:1009500020F039F49F3F19F426F40C9463030EF44D
:10096000E095E7FB0C945D03E92F0E94C00358F368
:10097000BA17620773078407950720F079F4A6F584
:100980000C94E2030EF4E0950B2EBA2FA02D0B0170
:10099000B90190010C01CA01A0011124FF27591BC4
:1009A00099F0593F50F4503E68F11A16F040A22FCA
:1009B000232F342F4427585FF3CF4695379527953B
:1009C000A795F0405395C9F77EF41F16BA0B620B3A
:1009D000730B840BBAF09150A1F0FF0FBB1F661F81
:1009E000771F881FC2F70EC0BA0F621F731F841FC4
:1009F00048F4879577956795B795F7959E3F08F0EA
:100A0000B0CF9395880F08F09927EE0F97958795AB
:100A100008959F3F31F0915020F487957795679521
:100A2000B795880F911D9695879597F908959150E0
:100A30005040660F771F881FD2F708950F931F93BA
:100A4000CF93DF93009731F46115710519F480E0BD
:100A500090E03AC08B01EC016EE070E081E090E044
:100A60000E949007FC01892B91F380E88383011594
:100A7000110571F01387028781E883838091EC016F
:100A80009091ED01892B21F4F093ED01E093EC01BD
:100A90002097C9F0D187C08783818260838380914A
:100AA000EE019091EF01892B71F4F093EF01E09347
:100AB000EE018091F0019091F101892B21F4F093E6
:100AC000F101E093F001CF01DF91CF911F910F91E0
:100AD0000895A0E0B0E0EFE6F5E00C949409AE01D3
:100AE0004B5F5F4FFA0161917191AF018091EE010F
:100AF0009091EF010E94AF05E2E00C94B0090F93D2
:100B00001F93CF93DF93E091EE01F091EF012381EA
:100B100021FF1BC08C01D0E0C0E0F80181918F0162
:100B20006091EE017091EF01DB011896ED91FC915F
:100B30001997882331F00995892B79F3DFEFCFEFEF
:100B4000ECCF8AE00995892B19F08FEF9FEF02C057
:100B50008D2F9C2FDF91CF911F910F910895ABE0C6
:100B6000B0E0E5EBF5E00C9484096C017B018A01AF
:100B7000FC0117821682838181FFCCC1CE010196D0
:100B80003C01F6019381F70193FD859193FF8191DB
:100B90007F01882309F4BAC1853239F493FD859128
:100BA00093FF81917F01853229F4B60190E00E9484
:100BB000EA08E7CF912C212C312CFFE1F315D8F076
:100BC0008B3279F038F4803279F08332A1F4232D1E
:100BD00020611DC08D3261F0803369F4232D2160C6
:100BE00016C0832D8260382EE32DE4603E2E2AC08D
:100BF000F32DF8601DC037FC2DC020ED280F2A30E2
:100C000040F08E32B9F436FC81C1232D2064322E9F
:100C100019C036FE06C08AE0989E200D1124922E3F
:100C200011C0EAE02E9E200D1124222EF32DF06239
:100C30003F2E08C08C3621F4832D8068382E02C0E8
:100C4000883641F4F70193FD859193FF81917F01EF
:100C50008111B3CF982F9F7D9554933028F40C5F6A
:100C60001F4F9FE399830DC0833631F0833771F0B6
:100C7000833509F059C021C0F801808189830E5F56
:100C80001F4F88248394912C530113C02801F2E054
:100C90004F0E511CF801A080B18036FE03C0692DB3
:100CA00070E002C06FEF7FEFC5010E94DF084C01CA
:100CB0008201F32DFF773F2E16C0280122E0420E5D
:100CC000511CF801A080B18036FE03C0692D70E090
:100CD00002C06FEF7FEFC5010E94CD084C01F32DDC
:100CE000F0683F2E820133FC1BC0822D90E08816F5
:100CF0009906B0F4B60180E290E00E94EA082A94D6
:100D0000F4CFF50137FC859137FE81915F01B60183
:100D100090E00E94EA0821102A9421E0821A9108AA
:100D20008114910471F7E8C0843611F0893641F5D9
:100D3000F80137FE07C060817181828193810C5F69
:100D40001F4F08C060817181072E000C880B990B22
:100D50000E5F1F4FF32DFF763F2E97FF09C0909532
:100D60008095709561957F4F8F4F9F4FF0683F2E14
:100D70002AE030E0A3010E942609882E861845C08B
:100D8000853731F4232D2F7EB22E2AE030E025C0A6
:100D9000932D997FB92E8F36C1F018F4883579F0EC
:100DA000B5C0803719F0883721F0B0C0E92FE06175
:100DB000BE2EB4FE0DC0FB2DF460BF2E09C034FE64
:100DC0000AC0292F2660B22E06C028E030E005C0F8
:100DD00020E130E002C020E132E0F801B7FE07C0B8
:100DE00060817181828193810C5F1F4F06C0608199
:100DF000718180E090E00E5F1F4FA3010E942609E1
:100E0000882E8618FB2DFF773F2E36FE0DC0232D32
:100E10002E7FA22E891458F434FE0BC032FC09C078
:100E2000832D8E7EA82E05C0B82CA32C03C0B82C11
:100E300001C0B92CA4FE0FC0FE01E80DF11D808198
:100E4000803321F49A2D997EA92E09C0A2FE06C0F6
:100E5000B394B39404C08A2D867809F0B394A3FCAC
:100E600011C0A0FE06C0B21488F4280C922C9B1866
:100E70000EC0B21460F4B60180E290E00E94EA086D
:100E8000B394F7CFB21418F42B1802C0982C212C6D
:100E9000A4FE10C0B60180E390E00E94EA08A2FE22
:100EA00017C0A1FC03C088E790E002C088E590E08D
:100EB000B6010CC08A2D867859F0A1FE02C08BE2E3
:100EC00001C080E2A7FC8DE2B60190E00E94EA0832
:100ED000891438F4B60180E390E00E94EA089A94FD
:100EE000F7CF8A94F301E80DF11D8081B60190E0FF
:100EF0000E94EA088110F5CF222009F442CEB60103
:100F000080E290E00E94EA082A94F6CFF6018681FA
:100F1000978102C08FEF9FEF2B96E2E10C94A0091E
:100F20000F931F93CF93DF93869F8001879F100DB0
:100F3000969F100D1124C8010E94AC07EC01009788
:100F400029F0A80160E070E00E94D808CE01DF918E
:100F5000CF911F910F9108950F931F93CF93DF931C
:100F60008230910510F482E090E0E091F401F0917C
:100F7000F50120E030E0A0E0B0E0309719F14081C9
:100F800051810281138148175907C8F084179507CA
:100F900069F4109731F012960C93129713961C93E4
:100FA00027C00093F4011093F50122C021153105EB
:100FB00019F04217530718F49A01BD01EF01DF0140
:100FC000F801DBCF21153105F9F0281B390B24304E
:100FD000310580F48A819B816115710521F0FB0147
:100FE0009383828304C09093F5018093F401FE0102
:100FF000329644C0FE01E20FF31F81939193225079
:101000003109398328833AC02091F2013091F301EC
:10101000232B41F420910201309103013093F3011D
:101020002093F20120910001309101012115310539
:1010300041F42DB73EB74091040150910501241BA6
:10104000350BE091F201F091F301E217F307A0F400
:101050002E1B3F0B2817390778F0AC014E5F5F4F0E
:101060002417350748F04E0F5F1F5093F30140934C
:10107000F2018193919302C0E0E0F0E0CF01DF91B3
:10108000CF911F910F910895CF93DF93009709F4AB
:1010900081C0FC01329713821282A091F401B091B9
:1010A000F501109781F420813181820F931F2091E7
:1010B000F2013091F3012817390751F5F093F3014C
:1010C000E093F20167C0ED0120E030E0CE17DF07CA
:1010D00040F44A815B819E0141155105F1F0EA011E
:1010E000F5CFD383C28340815181840F951FC817E8
:1010F000D90759F488819981840F951F02969183AD
:1011000080838A819B81938382832115310529F411
:10111000F093F501E093F4013DC0E901FB83EA831C
:1011200049915991C40FD51FEC17FD0761F48081D7
:101130009181840F951F0296E901998388838281AA
:1011400093819B838A83E0E0F0E012968D919C91DD
:101150001397009719F0FD01DC01F7CF8D919C9159
:1011600011979D012E5F3F4F820F931F2091F20137
:101170003091F3012817390769F4309729F4109258
:10118000F5011092F40102C013821282B093F301B0
:10119000A093F201DF91CF910895FC010590615079
:1011A00070400110D8F7809590958E0F9F1F08957D
:1011B000DC0101C06D9341505040E0F70895FC01FF
:1011C0006150704001900110D8F7809590958E0F76
:1011D0009F1F08950F931F93CF93DF93FB012381EC
:1011E00021FD03C08FEF9FEF2CC022FF16C0468168
:1011F0005781248135814217530744F4A081B1817E
:101200009D012F5F3F4F318320838C93268137814F
:101210002F5F3F4F3783268314C08B01EC01FB0106
:101220000084F185E02D0995892BE1F6D801169609
:101230008D919C911797019617969C938E93169774
:10124000CE01DF91CF911F910F910895FA01AA2746
:10125000283051F1203181F1E8946F936E7F6E5FF9
:101260007F4F8F4F9F4FAF4FB1E03ED0B4E03CD0A7
:10127000670F781F891F9A1FA11D680F791F8A1F8A
:10128000911DA11D6A0F711D811D911DA11D20D0F1
:1012900009F468943F912AE0269F11243019305DAB
:1012A0003193DEF6CF010895462F4770405D41939C
:1012B000B3E00FD0C9F7F6CF462F4F70405D4A33E9
:1012C00018F0495D31FD4052419302D0A9F7EACFB1
:1012D000B4E0A6959795879577956795BA95C9F7E0
:1012E00000976105710508959B01AC010A2E0694D3
:1012F0005795479537952795BA95C9F7620F731F8C
:10130000841F951FA01D08952F923F924F925F92C8
:101310006F927F928F929F92AF92BF92CF92DF9205
:10132000EF92FF920F931F93CF93DF93CDB7DEB76A
:10133000CA1BDB0B0FB6F894DEBF0FBECDBF0994FE
:101340002A88398848885F846E847D848C849B8455
:10135000AA84B984C884DF80EE80FD800C811B8163
:10136000AA81B981CE0FD11D0FB6F894DEBF0FBE92
:0A137000CDBFED010895F894FFCF02
:10137A000000F60120005B2534642C20202534640B
:10138A002C20202534642C20202534645D200D0A6D
:10139A00004E65757472616C0D00446F776E0D00B6
:1013AA0055700D0052696768740D004C6566740DBE
:1013BA000078206A6F79737469636B206465677259
:1013CA0065657320666C6F61743A20253464204524
:1013DA002D32200D0A0079206A6F79737469636B64
:1013EA00206465677265657320666C6F61743A2064
:1013FA0025346420452D32200D0A006C6566742060
:10140A00627574746F6E2076616C3A20253464209C
:10141A000D0A00726967687420627574746F6E20B1
:10142A0076616C3A20253464200D0A0070726F6769
:10143A0072616D20737461727465640D00696E2047
:10144A00666F72206C6F6F700D0070726F677261D9
:0C145A006D2066696E69736865640D00A2
:00000001FF
