S01300005465737450726F6772616D2E7372656399
S11300000C9438000C9455000C9455000C94550035
S11300100C9455000C9455000C9455000C94550008
S11300200C9455000C9455000C9455000C945500F8
S11300300C9455000C9455000C9455000C945500E8
S11300400C9455000C9455000C9455000C945500D8
S11300500C9455000C9455000C9455000C945500C8
S11300600C9455000C9455000C9455000C945500B8
S113007011241FBECFEFD4E0DEBFCDBF12E0A0E05D
S1130080B1E0E8E8FDE002C005900D92A839B1079F
S1130090D9F722E0A8E9B2E001C01D92A33AB20761
S11300A0E1F70E9457000C94C2060C9400008FE103
S11300B090E00E94160261E272E08DE192E00E94FB
S11300C02502A39A85B7806885BF80B7806280BF08
S11300D080B78F7E80BF80B7877F80BF0E94310149
S11300E00E94CA018AE091E09F938F930E9470025C
S11300F00E94F5010E9407028FE090E00E94C50073
S113010099279F938F938AE191E09F938F930E9405
S113011070020E94E30084E491E09F938F930E9415
S1130120700285E090E00E94D3000E94DD009927D0
S11301309F938F938FE591E09F938F930E9470021A
S113014081E891E09F938F930E9470020E94F501D1
S11301508DB79EB70E960FB6F8949EBF0FBE8DBF97
S113016080E090E00895CF93DF93D82FC62FC498F2
S113017082E00E940C028D2F0E940C028C2F0E94A0
S11301800C02C49ADF91CF910895CF93C82FC498DD
S113019083E00E940C028C2F0E940C020E94100229
S11301A0C49ACF910895CF93C82F80E40E940C0283
S11301B08C2F0E940C02CF91089580E90E940C02BA
S11301C00E9410020895CF9382E991E00E94860272
S11301D08FE00E94C500C82F1F928F9387EA91E099
S11301E09F938F930E947002CF75C0641F92CF9328
S11301F08AED91E09F938F930E9470026C2F8FE0A1
S11302000E94B3008FE00E94C5001F928F938FE07D
S113021092E09F938F930E9470028EE00E94C5002B
S1130220C82F1F928F938DE292E09F938F930E9429
S11302307002C295C695C7708DB79EB740960FB62B
S1130240F8949EBF0FBE8DBFC23029F48BE592E0B7
S11302500E94860204C08AE792E00E948602CF913F
S11302600895E0910801F09109018EEA8083E091FC
S11302700801F091090181EA8083E0910801F0917D
S113028009018AED8083E0910801F091090182E17E
S11302908083E0910801F091090188EC8083E0916A
S11302A00801F091090188EA8083E0910801F09146
S11302B009018FE38083E0910801F091090185ED44
S11302C08083E0910801F091090180E88083E09146
S11302D00801F091090181E88083E0910801F0911F
S11302E0090180E58083E0910801F091090189ED1D
S11302F08083E0910801F091090181E28083E0911B
S11303000801F091090180E28083E0910801F091F5
S1130310090182E08083E0910801F09109018BEDED
S11303208083E0910801F091090180E38083E091EA
S11303300801F09109018DEA8083E0910801F091B0
S113034009011082E0910801F091090184EA808397
S1130350E0910801F091090196EA9083E091080187
S1130360F09109019FEA9083E0910801F09109015D
S113037095EA9083E0910801F09109018083089542
S1130380982F906BE0910801F0910901908380937C
S113039098020895CF93DF93C0E0D0E0CE010E948D
S11303A0C00180E890E0E0910601F091070110821D
S11303B00197C9F72196C830D10581F780E090E014
S11303C00E94C001DF91CF910895982F9F70E09112
S11303D00801F0910901908382958F708061E0910A
S11303E00801F09109018083089580919802873073
S11303F028F490E001960E94C00104C080E090E0DF
S11304000E94C00180E090E00E94E501089580EB25
S113041087BB81E58DB908958FB9779BFECF089589
S113042085E08FB9779BFECF8FB1089590BD89B9D0
S113043088E18AB98EE880BD08955D9BFECF8CB9B2
S113044008955F9BFECF8CB108950F931F93CF93B4
S1130450DF93009731F46115710519F480E090E0A1
S11304603AC08B01EC016EE070E081E090E00E9404
S11304709704FC01892B91F380E88383011511050E
S113048071F01387028781E88383809199029091A8
S11304909A02892B21F4F0939A02E093990220970F
S11304A0C9F0D187C08783818260838380919B0256
S11304B090919C02892B71F4F0939C02E0939B022F
S11304C080919D0290919E02892B21F4F0939E02CB
S11304D0E0939D02CF01DF91CF911F910F91089579
S11304E0A0E0B0E0E6E7F2E00C949B06AE014B5FBF
S11304F05F4FFA0161917191AF0180919B029091DC
S11305009C020E94B602E2E00C94B7060F931F937C
S1130510CF93DF93E0919B02F0919C02238121FF12
S11305201BC08C01D0E0C0E0F80181918F01609183
S11305309B0270919C02DB011896ED91FC91199736
S1130540882331F00995892B79F3DFEFCFEFECCFD6
S11305508AE00995892B19F08FEF9FEF02C08D2F48
S11305609C2FDF91CF911F910F910895ABE0B0E0E4
S1130570ECEBF2E00C948B066C017B018A01FC012C
S113058017821682838181FFCCC1CE0101963C0182
S1130590F6019381F70193FD859193FF81917F018A
S11305A0882309F4BAC1853239F493FD859193FF08
S11305B081917F01853229F4B60190E00E94F10512
S11305C0E7CF912C212C312CFFE1F315D8F08B329D
S11305D079F038F4803279F08332A1F4232D20614C
S11305E01DC08D3261F0803369F4232D216016C063
S11305F0832D8260382EE32DE4603E2E2AC0F32D35
S1130600F8601DC037FC2DC020ED280F2A3040F0C3
S11306108E32B9F436FC81C1232D2064322E19C0E8
S113062036FE06C08AE0989E200D1124922E11C039
S1130630EAE02E9E200D1124222EF32DF0623F2E8F
S113064008C08C3621F4832D8068382E02C0883689
S113065041F4F70193FD859193FF81917F0181110D
S1130660B3CF982F9F7D9554933028F40C5F1F4F80
S11306709FE399830DC0833631F0833771F083355E
S113068009F059C021C0F801808189830E5F1F4F92
S113069088248394912C530113C02801F2E04F0E57
S11306A0511CF801A080B18036FE03C0692D70E0B2
S11306B002C06FEF7FEFC5010E94E6054C01820185
S11306C0F32DFF773F2E16C0280122E0420E511C65
S11306D0F801A080B18036FE03C0692D70E002C02D
S11306E06FEF7FEFC5010E94D4054C01F32DF06834
S11306F03F2E820133FC1BC0822D90E088169906A0
S1130700B0F4B60180E290E00E94F1052A94F4CF9F
S1130710F50137FC859137FE81915F01B60190E0C8
S11307200E94F10521102A9421E0821A9108811473
S1130730910471F7E8C0843611F0893641F5F80167
S113074037FE07C060817181828193810C5F1F4FE6
S113075008C060817181072E000C880B990B0E5F15
S11307601F4FF32DFF763F2E97FF09C0909580957C
S1130770709561957F4F8F4F9F4FF0683F2E2AE011
S113078030E0A3010E942D06882E861845C08537C7
S113079031F4232D2F7EB22E2AE030E025C0932D94
S11307A0997FB92E8F36C1F018F4883579F0B5C029
S11307B0803719F0883721F0B0C0E92FE061BE2EF0
S11307C0B4FE0DC0FB2DF460BF2E09C034FE0AC078
S11307D0292F2660B22E06C028E030E005C020E1B3
S11307E030E002C020E132E0F801B7FE07C06081CA
S11307F07181828193810C5F1F4F06C0608171817A
S113080080E090E00E5F1F4FA3010E942D06882E0A
S11308108618FB2DFF773F2E36FE0DC0232D2E7F2D
S1130820A22E891458F434FE0BC032FC09C0832D67
S11308308E7EA82E05C0B82CA32C03C0B82C01C0F2
S1130840B92CA4FE0FC0FE01E80DF11D8081803398
S113085021F49A2D997EA92E09C0A2FE06C0B39454
S1130860B39404C08A2D867809F0B394A3FC11C014
S1130870A0FE06C0B21488F4280C922C9B180EC05B
S1130880B21460F4B60180E290E00E94F105B394E2
S1130890F7CFB21418F42B1802C0982C212CA4FE04
S11308A010C0B60180E390E00E94F105A2FE17C0DB
S11308B0A1FC03C088E790E002C088E590E0B6019F
S11308C00CC08A2D867859F0A1FE02C08BE201C0CB
S11308D080E2A7FC8DE2B60190E00E94F105891444
S11308E038F4B60180E390E00E94F1059A94F7CFC2
S11308F08A94F301E80DF11D8081B60190E00E9415
S1130900F1058110F5CF222009F442CEB60180E230
S113091090E00E94F1052A94F6CFF6018681978132
S113092002C08FEF9FEF2B96E2E10C94A7060F9382
S11309301F93CF93DF93869F8001879F100D969F0F
S1130940100D1124C8010E94B304EC01009729F092
S1130950A80160E070E00E94DF05CE01DF91CF9135
S11309601F910F9108950F931F93CF93DF938230BC
S1130970910510F482E090E0E091A102F091A202CE
S113098020E030E0A0E0B0E0309719F140815181DF
S11309900281138148175907C8F08417950769F431
S11309A0109731F012960C93129713961C9327C04C
S11309B00093A1021093A20222C02115310519F05F
S11309C04217530718F49A01BD01EF01DF01F80142
S11309D0DBCF21153105F9F0281B390B2430310503
S11309E080F48A819B816115710521F0FB01938359
S11309F0828304C09093A2028093A102FE013296E6
S1130A0044C0FE01E20FF31F8193919322503109F8
S1130A10398328833AC020919F023091A002232B6E
S1130A2041F420910201309103013093A0022093FC
S1130A309F0220910001309101012115310541F4FB
S1130A402DB73EB74091040150910501241B350B8D
S1130A50E0919F02F091A002E217F307A0F42E1B8D
S1130A603F0B2817390778F0AC014E5F5F4F24170E
S1130A70350748F04E0F5F1F5093A00240939F022A
S1130A808193919302C0E0E0F0E0CF01DF91CF9138
S1130A901F910F910895CF93DF93009709F481C0BC
S1130AA0FC01329713821282A091A102B091A2029A
S1130AB0109781F420813181820F931F20919F022E
S1130AC03091A0022817390751F5F093A002E09362
S1130AD09F0267C0ED0120E030E0CE17DF0740F44D
S1130AE04A815B819E0141155105F1F0EA01F5CF80
S1130AF0D383C28340815181840F951FC817D907BE
S1130B0059F488819981840F951F0296918380837B
S1130B108A819B81938382832115310529F4F09383
S1130B20A202E093A1023DC0E901FB83EA8349915B
S1130B305991C40FD51FEC17FD0761F48081918191
S1130B40840F951F0296E90199838883828193819A
S1130B509B838A83E0E0F0E012968D919C91139739
S1130B60009719F0FD01DC01F7CF8D919C9111974D
S1130B709D012E5F3F4F820F931F20919F02309162
S1130B80A0022817390769F4309729F41092A202B9
S1130B901092A10202C013821282B093A002A09309
S1130BA09F02DF91CF910895FC0105906150704040
S1130BB00110D8F7809590958E0F9F1F0895DC0142
S1130BC001C06D9341505040E0F70895FC0161501D
S1130BD0704001900110D8F7809590958E0F9F1F5B
S1130BE008950F931F93CF93DF93FB01238121FD7E
S1130BF003C08FEF9FEF2CC022FF16C046815781A0
S1130C00248135814217530744F4A081B1819D01A9
S1130C102F5F3F4F318320838C93268137812F5F51
S1130C203F4F3783268314C08B01EC01FB01008402
S1130C30F185E02D0995892BE1F6D80116968D9161
S1130C409C911797019617969C938E931697CE01B5
S1130C50DF91CF911F910F910895FA01AA272830AF
S1130C6051F1203181F1E8946F936E7F6E5F7F4F75
S1130C708F4F9F4FAF4FB1E03ED0B4E03CD0670FF1
S1130C80781F891F9A1FA11D680F791F8A1F911D44
S1130C90A11D6A0F711D811D911DA11D20D009F494
S1130CA068943F912AE0269F11243019305D3193D6
S1130CB0DEF6CF010895462F4770405D4193B3E0BF
S1130CC00FD0C9F7F6CF462F4F70405D4A3318F066
S1130CD0495D31FD4052419302D0A9F7EACFB4E017
S1130CE0A6959795879577956795BA95C9F70097CF
S1130CF06105710508959B01AC010A2E0694579570
S1130D00479537952795BA95C9F7620F731F841FC6
S1130D10951FA01D08952F923F924F925F926F925C
S1130D207F928F929F92AF92BF92CF92DF92EF9277
S1130D30FF920F931F93CF93DF93CDB7DEB7CA1BF8
S1130D40DB0B0FB6F894DEBF0FBECDBF09942A8823
S1130D50398848885F846E847D848C849B84AA84CB
S1130D60B984C884DF80EE80FD800C811B81AA8158
S1130D70B981CE0FD11D0FB6F894DEBF0FBECDBF23
S10B0D80ED010895F894FFCF82
S1130D880000A30220000012001070726F677261E5
S1130D986D20737461727465640074686520696E8B
S1130DA8697469616C20636F6E74656E74206F6614
S1130DB82063616E6374726C206973202534643A0D
S1130DC8200D0A00646F696E672074657374206F60
S1130DD866206C6F6164696E672062756673007261
S1130DE8656164696E6720727820627566666572EB
S1130DF8207969656C64733A202534643A200D0AB5
S1130E080070726F6772616D2066696E69736865D8
S1130E186400696E2073657474696E67206C6F6F03
S1130E28706261636B0D0074686520696E6974692A
S1130E38616C206C6F6F706261636B20636F6E749A
S1130E48656E74206F662063616E6374726C2069CA
S1130E5873202534643A200D0A00746865206E6591
S1130E6877206C6F6F706261636B20746F206265AA
S1130E78207772697474656E20746F2063616E6381
S1130E8874726C206973202534643A200D0A006357
S1130E98616E6374726C2069732077726974746507
S1130EA86E20746F202534643A200D0A0063616E45
S1130EB873746174207768656E2073657474696EE1
S1130EC867206C6F6F706261636B206D6F6465205F
S1130ED86973202534643A200D0A007375636573B9
S1130EE87366756C6C7920736574206C6F6F7062AF
S1130EF861636B206D6F64650D0073657474696E4E
S1130F0867206C6F6F706261636B206D6F6465201E
S10B0F186661696C65640D005B
S9030000FC
